{
  "_format": "hh-sol-artifact-1",
  "contractName": "SimpleDEX",
  "sourceName": "contracts/SimpleDex.sol",
  "abi": [
    {
      "inputs": [
        {
          "internalType": "address",
          "name": "_tokenA",
          "type": "address"
        },
        {
          "internalType": "address",
          "name": "_tokenB",
          "type": "address"
        }
      ],
      "stateMutability": "nonpayable",
      "type": "constructor"
    },
    {
      "inputs": [
        {
          "internalType": "address",
          "name": "owner",
          "type": "address"
        }
      ],
      "name": "OwnableInvalidOwner",
      "type": "error"
    },
    {
      "inputs": [
        {
          "internalType": "address",
          "name": "account",
          "type": "address"
        }
      ],
      "name": "OwnableUnauthorizedAccount",
      "type": "error"
    },
    {
      "anonymous": false,
      "inputs": [
        {
          "indexed": false,
          "internalType": "uint256",
          "name": "amountA",
          "type": "uint256"
        },
        {
          "indexed": false,
          "internalType": "uint256",
          "name": "amountB",
          "type": "uint256"
        }
      ],
      "name": "LiquidityAdded",
      "type": "event"
    },
    {
      "anonymous": false,
      "inputs": [
        {
          "indexed": false,
          "internalType": "uint256",
          "name": "amountA",
          "type": "uint256"
        },
        {
          "indexed": false,
          "internalType": "uint256",
          "name": "amountB",
          "type": "uint256"
        }
      ],
      "name": "LiquidityRemoved",
      "type": "event"
    },
    {
      "anonymous": false,
      "inputs": [
        {
          "indexed": true,
          "internalType": "address",
          "name": "previousOwner",
          "type": "address"
        },
        {
          "indexed": true,
          "internalType": "address",
          "name": "newOwner",
          "type": "address"
        }
      ],
      "name": "OwnershipTransferred",
      "type": "event"
    },
    {
      "anonymous": false,
      "inputs": [
        {
          "indexed": true,
          "internalType": "address",
          "name": "user",
          "type": "address"
        },
        {
          "indexed": false,
          "internalType": "uint256",
          "name": "amountIn",
          "type": "uint256"
        },
        {
          "indexed": false,
          "internalType": "uint256",
          "name": "amountOut",
          "type": "uint256"
        }
      ],
      "name": "TokenSwapped",
      "type": "event"
    },
    {
      "inputs": [
        {
          "internalType": "uint256",
          "name": "amountA",
          "type": "uint256"
        },
        {
          "internalType": "uint256",
          "name": "amountB",
          "type": "uint256"
        }
      ],
      "name": "addLiquidity",
      "outputs": [],
      "stateMutability": "nonpayable",
      "type": "function"
    },
    {
      "inputs": [
        {
          "internalType": "address",
          "name": "_token",
          "type": "address"
        }
      ],
      "name": "getPrice",
      "outputs": [
        {
          "internalType": "uint256",
          "name": "",
          "type": "uint256"
        }
      ],
      "stateMutability": "view",
      "type": "function"
    },
    {
      "inputs": [],
      "name": "owner",
      "outputs": [
        {
          "internalType": "address",
          "name": "",
          "type": "address"
        }
      ],
      "stateMutability": "view",
      "type": "function"
    },
    {
      "inputs": [
        {
          "internalType": "uint256",
          "name": "amountA",
          "type": "uint256"
        },
        {
          "internalType": "uint256",
          "name": "amountB",
          "type": "uint256"
        }
      ],
      "name": "removeLiquidity",
      "outputs": [],
      "stateMutability": "nonpayable",
      "type": "function"
    },
    {
      "inputs": [],
      "name": "renounceOwnership",
      "outputs": [],
      "stateMutability": "nonpayable",
      "type": "function"
    },
    {
      "inputs": [
        {
          "internalType": "uint256",
          "name": "amountAIn",
          "type": "uint256"
        }
      ],
      "name": "swapAforB",
      "outputs": [],
      "stateMutability": "nonpayable",
      "type": "function"
    },
    {
      "inputs": [
        {
          "internalType": "uint256",
          "name": "amountBIn",
          "type": "uint256"
        }
      ],
      "name": "swapBforA",
      "outputs": [],
      "stateMutability": "nonpayable",
      "type": "function"
    },
    {
      "inputs": [],
      "name": "tokenA",
      "outputs": [
        {
          "internalType": "contract IERC20",
          "name": "",
          "type": "address"
        }
      ],
      "stateMutability": "view",
      "type": "function"
    },
    {
      "inputs": [],
      "name": "tokenB",
      "outputs": [
        {
          "internalType": "contract IERC20",
          "name": "",
          "type": "address"
        }
      ],
      "stateMutability": "view",
      "type": "function"
    },
    {
      "inputs": [
        {
          "internalType": "address",
          "name": "newOwner",
          "type": "address"
        }
      ],
      "name": "transferOwnership",
      "outputs": [],
      "stateMutability": "nonpayable",
      "type": "function"
    }
  ],
  "bytecode": "0x608060405234801561001057600080fd5b50604051611c79380380611c7983398181016040528101906100329190610265565b33600073ffffffffffffffffffffffffffffffffffffffff168173ffffffffffffffffffffffffffffffffffffffff16036100a55760006040517f1e4fbdf700000000000000000000000000000000000000000000000000000000815260040161009c91906102b4565b60405180910390fd5b6100b48161013e60201b60201c565b5081600160006101000a81548173ffffffffffffffffffffffffffffffffffffffff021916908373ffffffffffffffffffffffffffffffffffffffff16021790555080600260006101000a81548173ffffffffffffffffffffffffffffffffffffffff021916908373ffffffffffffffffffffffffffffffffffffffff16021790555050506102cf565b60008060009054906101000a900473ffffffffffffffffffffffffffffffffffffffff169050816000806101000a81548173ffffffffffffffffffffffffffffffffffffffff021916908373ffffffffffffffffffffffffffffffffffffffff1602179055508173ffffffffffffffffffffffffffffffffffffffff168173ffffffffffffffffffffffffffffffffffffffff167f8be0079c531659141344cd1fd0a4f28419497f9722a3daafe3b4186f6b6457e060405160405180910390a35050565b600080fd5b600073ffffffffffffffffffffffffffffffffffffffff82169050919050565b600061023282610207565b9050919050565b61024281610227565b811461024d57600080fd5b50565b60008151905061025f81610239565b92915050565b6000806040838503121561027c5761027b610202565b5b600061028a85828601610250565b925050602061029b85828601610250565b9150509250929050565b6102ae81610227565b82525050565b60006020820190506102c960008301846102a5565b92915050565b61199b806102de6000396000f3fe608060405234801561001057600080fd5b506004361061009e5760003560e01c80638da5cb5b116100665780638da5cb5b146101355780639cd441da146101535780639d7de6b31461016f578063e4f1f70a1461018b578063f2fde38b146101a75761009e565b80630fc63d10146100a357806341976e09146100c15780635f64b55b146100f1578063715018a61461010f5780638014a7aa14610119575b600080fd5b6100ab6101c3565b6040516100b891906113ed565b60405180910390f35b6100db60048036038101906100d6919061144b565b6101e9565b6040516100e89190611491565b60405180910390f35b6100f96105df565b60405161010691906113ed565b60405180910390f35b610117610605565b005b610133600480360381019061012e91906114d8565b610619565b005b61013d610939565b60405161014a9190611514565b60405180910390f35b61016d6004803603810190610168919061152f565b610962565b005b6101896004803603810190610184919061152f565b610b3c565b005b6101a560048036038101906101a091906114d8565b610e48565b005b6101c160048036038101906101bc919061144b565b611168565b005b600160009054906101000a900473ffffffffffffffffffffffffffffffffffffffff1681565b6000600160009054906101000a900473ffffffffffffffffffffffffffffffffffffffff1673ffffffffffffffffffffffffffffffffffffffff168273ffffffffffffffffffffffffffffffffffffffff1614806102945750600260009054906101000a900473ffffffffffffffffffffffffffffffffffffffff1673ffffffffffffffffffffffffffffffffffffffff168273ffffffffffffffffffffffffffffffffffffffff16145b6102d3576040517f08c379a00000000000000000000000000000000000000000000000000000000081526004016102ca906115cc565b60405180910390fd5b600160009054906101000a900473ffffffffffffffffffffffffffffffffffffffff1673ffffffffffffffffffffffffffffffffffffffff168273ffffffffffffffffffffffffffffffffffffffff161461048257600260009054906101000a900473ffffffffffffffffffffffffffffffffffffffff1673ffffffffffffffffffffffffffffffffffffffff166370a08231306040518263ffffffff1660e01b81526004016103839190611514565b602060405180830381865afa1580156103a0573d6000803e3d6000fd5b505050506040513d601f19601f820116820180604052508101906103c49190611601565b670de0b6b3a7640000600160009054906101000a900473ffffffffffffffffffffffffffffffffffffffff1673ffffffffffffffffffffffffffffffffffffffff166370a08231306040518263ffffffff1660e01b81526004016104289190611514565b602060405180830381865afa158015610445573d6000803e3d6000fd5b505050506040513d601f19601f820116820180604052508101906104699190611601565b610473919061165d565b61047d91906116ce565b6105d8565b600160009054906101000a900473ffffffffffffffffffffffffffffffffffffffff1673ffffffffffffffffffffffffffffffffffffffff166370a08231306040518263ffffffff1660e01b81526004016104dd9190611514565b602060405180830381865afa1580156104fa573d6000803e3d6000fd5b505050506040513d601f19601f8201168201806040525081019061051e9190611601565b670de0b6b3a7640000600260009054906101000a900473ffffffffffffffffffffffffffffffffffffffff1673ffffffffffffffffffffffffffffffffffffffff166370a08231306040518263ffffffff1660e01b81526004016105829190611514565b602060405180830381865afa15801561059f573d6000803e3d6000fd5b505050506040513d601f19601f820116820180604052508101906105c39190611601565b6105cd919061165d565b6105d791906116ce565b5b9050919050565b600260009054906101000a900473ffffffffffffffffffffffffffffffffffffffff1681565b61060d6111ee565b6106176000611275565b565b6000811161065c576040517f08c379a00000000000000000000000000000000000000000000000000000000081526004016106539061174b565b60405180910390fd5b600061079f82600260009054906101000a900473ffffffffffffffffffffffffffffffffffffffff1673ffffffffffffffffffffffffffffffffffffffff166370a08231306040518263ffffffff1660e01b81526004016106bd9190611514565b602060405180830381865afa1580156106da573d6000803e3d6000fd5b505050506040513d601f19601f820116820180604052508101906106fe9190611601565b600160009054906101000a900473ffffffffffffffffffffffffffffffffffffffff1673ffffffffffffffffffffffffffffffffffffffff166370a08231306040518263ffffffff1660e01b81526004016107599190611514565b602060405180830381865afa158015610776573d6000803e3d6000fd5b505050506040513d601f19601f8201168201806040525081019061079a9190611601565b611339565b9050600260009054906101000a900473ffffffffffffffffffffffffffffffffffffffff1673ffffffffffffffffffffffffffffffffffffffff166323b872dd3330856040518463ffffffff1660e01b81526004016108009392919061176b565b6020604051808303816000875af115801561081f573d6000803e3d6000fd5b505050506040513d601f19601f8201168201806040525081019061084391906117da565b50600160009054906101000a900473ffffffffffffffffffffffffffffffffffffffff1673ffffffffffffffffffffffffffffffffffffffff1663a9059cbb33836040518363ffffffff1660e01b81526004016108a1929190611807565b6020604051808303816000875af11580156108c0573d6000803e3d6000fd5b505050506040513d601f19601f820116820180604052508101906108e491906117da565b503373ffffffffffffffffffffffffffffffffffffffff167fd5a1cd88ddd329cc1ddf861a21708efa9ef3136b88e1420c21f91ef6f95ad024838360405161092d929190611830565b60405180910390a25050565b60008060009054906101000a900473ffffffffffffffffffffffffffffffffffffffff16905090565b61096a6111ee565b60008211801561097a5750600081115b6109b9576040517f08c379a00000000000000000000000000000000000000000000000000000000081526004016109b0906118a5565b60405180910390fd5b600160009054906101000a900473ffffffffffffffffffffffffffffffffffffffff1673ffffffffffffffffffffffffffffffffffffffff166323b872dd3330856040518463ffffffff1660e01b8152600401610a189392919061176b565b6020604051808303816000875af1158015610a37573d6000803e3d6000fd5b505050506040513d601f19601f82011682018060405250810190610a5b91906117da565b50600260009054906101000a900473ffffffffffffffffffffffffffffffffffffffff1673ffffffffffffffffffffffffffffffffffffffff166323b872dd3330846040518463ffffffff1660e01b8152600401610abb9392919061176b565b6020604051808303816000875af1158015610ada573d6000803e3d6000fd5b505050506040513d601f19601f82011682018060405250810190610afe91906117da565b507f38f8a0c92f4c5b0b6877f878cb4c0c8d348a47b76d716c8e78f425043df9515b8282604051610b30929190611830565b60405180910390a15050565b610b446111ee565b600160009054906101000a900473ffffffffffffffffffffffffffffffffffffffff1673ffffffffffffffffffffffffffffffffffffffff166370a08231306040518263ffffffff1660e01b8152600401610b9f9190611514565b602060405180830381865afa158015610bbc573d6000803e3d6000fd5b505050506040513d601f19601f82011682018060405250810190610be09190611601565b8211158015610c8a5750600260009054906101000a900473ffffffffffffffffffffffffffffffffffffffff1673ffffffffffffffffffffffffffffffffffffffff166370a08231306040518263ffffffff1660e01b8152600401610c459190611514565b602060405180830381865afa158015610c62573d6000803e3d6000fd5b505050506040513d601f19601f82011682018060405250810190610c869190611601565b8111155b610cc9576040517f08c379a0000000000000000000000000000000000000000000000000000000008152600401610cc090611911565b60405180910390fd5b600160009054906101000a900473ffffffffffffffffffffffffffffffffffffffff1673ffffffffffffffffffffffffffffffffffffffff1663a9059cbb33846040518363ffffffff1660e01b8152600401610d26929190611807565b6020604051808303816000875af1158015610d45573d6000803e3d6000fd5b505050506040513d601f19601f82011682018060405250810190610d6991906117da565b50600260009054906101000a900473ffffffffffffffffffffffffffffffffffffffff1673ffffffffffffffffffffffffffffffffffffffff1663a9059cbb33836040518363ffffffff1660e01b8152600401610dc7929190611807565b6020604051808303816000875af1158015610de6573d6000803e3d6000fd5b505050506040513d601f19601f82011682018060405250810190610e0a91906117da565b507f6f0f96292ae0038c04f9b6bab30f185d9ca02c471d0983f563f2a4f674aef1378282604051610e3c929190611830565b60405180910390a15050565b60008111610e8b576040517f08c379a0000000000000000000000000000000000000000000000000000000008152600401610e829061174b565b60405180910390fd5b6000610fce82600160009054906101000a900473ffffffffffffffffffffffffffffffffffffffff1673ffffffffffffffffffffffffffffffffffffffff166370a08231306040518263ffffffff1660e01b8152600401610eec9190611514565b602060405180830381865afa158015610f09573d6000803e3d6000fd5b505050506040513d601f19601f82011682018060405250810190610f2d9190611601565b600260009054906101000a900473ffffffffffffffffffffffffffffffffffffffff1673ffffffffffffffffffffffffffffffffffffffff166370a08231306040518263ffffffff1660e01b8152600401610f889190611514565b602060405180830381865afa158015610fa5573d6000803e3d6000fd5b505050506040513d601f19601f82011682018060405250810190610fc99190611601565b611339565b9050600160009054906101000a900473ffffffffffffffffffffffffffffffffffffffff1673ffffffffffffffffffffffffffffffffffffffff166323b872dd3330856040518463ffffffff1660e01b815260040161102f9392919061176b565b6020604051808303816000875af115801561104e573d6000803e3d6000fd5b505050506040513d601f19601f8201168201806040525081019061107291906117da565b50600260009054906101000a900473ffffffffffffffffffffffffffffffffffffffff1673ffffffffffffffffffffffffffffffffffffffff1663a9059cbb33836040518363ffffffff1660e01b81526004016110d0929190611807565b6020604051808303816000875af11580156110ef573d6000803e3d6000fd5b505050506040513d601f19601f8201168201806040525081019061111391906117da565b503373ffffffffffffffffffffffffffffffffffffffff167fd5a1cd88ddd329cc1ddf861a21708efa9ef3136b88e1420c21f91ef6f95ad024838360405161115c929190611830565b60405180910390a25050565b6111706111ee565b600073ffffffffffffffffffffffffffffffffffffffff168173ffffffffffffffffffffffffffffffffffffffff16036111e25760006040517f1e4fbdf70000000000000000000000000000000000000000000000000000000081526004016111d99190611514565b60405180910390fd5b6111eb81611275565b50565b6111f6611366565b73ffffffffffffffffffffffffffffffffffffffff16611214610939565b73ffffffffffffffffffffffffffffffffffffffff161461127357611237611366565b6040517f118cdaa700000000000000000000000000000000000000000000000000000000815260040161126a9190611514565b60405180910390fd5b565b60008060009054906101000a900473ffffffffffffffffffffffffffffffffffffffff169050816000806101000a81548173ffffffffffffffffffffffffffffffffffffffff021916908373ffffffffffffffffffffffffffffffffffffffff1602179055508173ffffffffffffffffffffffffffffffffffffffff168173ffffffffffffffffffffffffffffffffffffffff167f8be0079c531659141344cd1fd0a4f28419497f9722a3daafe3b4186f6b6457e060405160405180910390a35050565b600083836113479190611931565b8285611353919061165d565b61135d91906116ce565b90509392505050565b600033905090565b600073ffffffffffffffffffffffffffffffffffffffff82169050919050565b6000819050919050565b60006113b36113ae6113a98461136e565b61138e565b61136e565b9050919050565b60006113c582611398565b9050919050565b60006113d7826113ba565b9050919050565b6113e7816113cc565b82525050565b600060208201905061140260008301846113de565b92915050565b600080fd5b60006114188261136e565b9050919050565b6114288161140d565b811461143357600080fd5b50565b6000813590506114458161141f565b92915050565b60006020828403121561146157611460611408565b5b600061146f84828501611436565b91505092915050565b6000819050919050565b61148b81611478565b82525050565b60006020820190506114a66000830184611482565b92915050565b6114b581611478565b81146114c057600080fd5b50565b6000813590506114d2816114ac565b92915050565b6000602082840312156114ee576114ed611408565b5b60006114fc848285016114c3565b91505092915050565b61150e8161140d565b82525050565b60006020820190506115296000830184611505565b92915050565b6000806040838503121561154657611545611408565b5b6000611554858286016114c3565b9250506020611565858286016114c3565b9150509250929050565b600082825260208201905092915050565b7f496e76616c696420746f6b656e00000000000000000000000000000000000000600082015250565b60006115b6600d8361156f565b91506115c182611580565b602082019050919050565b600060208201905081810360008301526115e5816115a9565b9050919050565b6000815190506115fb816114ac565b92915050565b60006020828403121561161757611616611408565b5b6000611625848285016115ec565b91505092915050565b7f4e487b7100000000000000000000000000000000000000000000000000000000600052601160045260246000fd5b600061166882611478565b915061167383611478565b925082820261168181611478565b915082820484148315176116985761169761162e565b5b5092915050565b7f4e487b7100000000000000000000000000000000000000000000000000000000600052601260045260246000fd5b60006116d982611478565b91506116e483611478565b9250826116f4576116f361169f565b5b828204905092915050565b7f416d6f756e74206d757374206265203e20300000000000000000000000000000600082015250565b600061173560128361156f565b9150611740826116ff565b602082019050919050565b6000602082019050818103600083015261176481611728565b9050919050565b60006060820190506117806000830186611505565b61178d6020830185611505565b61179a6040830184611482565b949350505050565b60008115159050919050565b6117b7816117a2565b81146117c257600080fd5b50565b6000815190506117d4816117ae565b92915050565b6000602082840312156117f0576117ef611408565b5b60006117fe848285016117c5565b91505092915050565b600060408201905061181c6000830185611505565b6118296020830184611482565b9392505050565b60006040820190506118456000830185611482565b6118526020830184611482565b9392505050565b7f416d6f756e7473206d757374206265203e203000000000000000000000000000600082015250565b600061188f60138361156f565b915061189a82611859565b602082019050919050565b600060208201905081810360008301526118be81611882565b9050919050565b7f4c6f77206c697175696469747900000000000000000000000000000000000000600082015250565b60006118fb600d8361156f565b9150611906826118c5565b602082019050919050565b6000602082019050818103600083015261192a816118ee565b9050919050565b600061193c82611478565b915061194783611478565b925082820190508082111561195f5761195e61162e565b5b9291505056fea2646970667358221220d0cd4d858125da6c94c8bd284179412ac057190649e60130a140fea7f44b038464736f6c634300081c0033",
  "linkReferences": {},
  "deployedLinkReferences": {}
}